:020000040800F2
:1000000048050020C101000867160008CD1500084A
:1000100065160008CD020008051800080000000061
:100020000000000000000000000000006B16000847
:100030009903000800000000691600086D1600080A
:10004000DB010008DB010008DB010008DB01000820
:10005000DB010008DB010008DB010008DB01000810
:10006000DB010008DB010008DB010008DB01000800
:10007000DB010008DB010008DB010008DB010008F0
:10008000DB010008DB010008DB010008DB010008E0
:10009000D1020008DB010008DB010008DB010008D9
:1000A000DB010008DB010008DB010008DB010008C0
:1000B000DB010008DB010008DB010008DB010008B0
:1000C000DB010008DB010008DB010008DB010008A0
:1000D000DB010008DB010008DB010008DB01000890
:1000E000DB010008DB010008DB010008DB01000880
:1000F000DB010008DB010008DB010008DB01000870
:10010000DB010008DB010008DB010008DB0100085F
:10011000DB010008DB010008DB01000831170008E3
:10012000DB010008DB010008DB010008DB0100083F
:10013000DB010008DB010008DB010008DB0100082F
:10014000DD020008DB010008DB010008DB0100081C
:10015000DB010008DB010008DB010008DB0100080F
:10016000DB010008DB010008DB010008DB010008FF
:10017000DB010008DB010008DB01000800000000D3
:10018000DB010008DB010008DB010008DB010008DF
:10019000DB010008DB010008DB010008DB010008CF
:1001A000DB010008DB010008DB010008DFF80CD0F0
:1001B00000F07AF8004800478D1800084805002034
:1001C0000648804706480047FEE7FEE7FEE7FEE7F1
:1001D000FEE7FEE7FEE7FEE7FEE7FEE7151700088D
:1001E000AD0100082DE9F05F0546002092469B46D0
:1001F00088460646814640241BE02846414647463D
:10020000224600F041F853465A46C01A914110D395
:1002100011461846224600F028F82D1A67EB01080F
:100220004F4622460120002100F01FF817EB00097D
:100230004E41201EA4F10104DFDC484631462A4627
:100240004346BDE8F09FD2B201E000F8012B491E01
:10025000FBD270470022F6E710B513460A46044663
:100260001946FFF7F0FF204610BD202A04DB203A94
:1002700000FA02F1002070479140C2F1200320FAF9
:1002800003F3194390407047202A04DB203A21FAF7
:1002900002F00021704721FA02F3D040C2F120029F
:1002A0009140084319467047064C074D06E0E06848
:1002B00040F0010394E8070098471034AC42F6D3AD
:1002C000FFF778FFD4180008F4180008FEE70000D4
:1002D000014800F072B90000D4000020014800F08D
:1002E0006CB900006400002010B5FA21002000F075
:1002F00007F8FA21BDE81040012000F001B8000025
:1003000070B5024621480025C2EBC2038AB000EB5B
:100310000314FA2908D10A2161604FF40021C4E9CD
:1003200003514FF4E00161615AB3194820600E2077
:1003300005900990A560257665760126A676E67675
:1003400025776677204600F036FA08B100F025F8E8
:10035000CDE906560395009501950295204669461C
:100360000896049500F02EF808B100F016F8204623
:10037000022100F014F8002801D000F00EF80AB0B5
:1003800070BD0449016005950995D3E7640000201C
:100390000068004000640040704772B6FEE790F8C5
:1003A0002020012A07D0022A05D0416A41F4802189
:1003B000416201207047006842690A43426100209F
:1003C0007047000010B590F82020012A07D0022ABB
:1003D00005D0416A41F480214162012010BD3B48B3
:1003E000D0F8002242F00102C0F80022D0F800222A
:1003F00022F47C52C0F80022D0F800224B6A42EA74
:100400000322C0F800220A7D02F01F0301229A4055
:10041000D0F81C329343C0F81C32CB69B3B9D0F882
:100420000C329343C0F80C328C894B6864F31F4341
:100430004C6900EBC404C4F840320C890B6864F3C7
:100440001F434C6900EBC404C4F84432CB69012B50
:1004500016D1D0F80C321343C0F80C320C884B681C
:1004600064F31F434C6900EBC404C4F840320C89A8
:10047000CB6864F31F434C6900EBC404C4F84432F6
:100480008B69002BD0F804320ED01343C0F804322D
:100490000B69002BD0F8143208D01343C0F8143283
:1004A000096A012904D008E09343EFE79343F5E795
:1004B000D0F81C121143C0F81C12D0F8001221F021
:1004C0000101C0F80012002010BD000000640040CF
:1004D000704730B590F82040012C05D0022C03D095
:1004E000416A41F480215DE00468002955D0246907
:1004F000A40754D04FF4D874056804EB01142D59A7
:1005000015F00405956005682D594ED0ED0855602D
:1005100005682C5904F00204D4604FF4DA740568BD
:1005200004EB01142D5905F00F05156105682D59CF
:10053000C5F30725956105682C59240C54614FF4C7
:10054000DC72046802EB0112A4581C700468A45801
:10055000240A5C700468A458240C9C700468A25897
:10056000120EDA704FF4DE72046802EB0112A45826
:100570001C710468A458240A5C710468A458240CF3
:100580009C710468A258120EDA71006881B1016989
:1005900041F020010161002030BDE468A8E7416A14
:1005A00041F400114162012030BD6D0D1560AFE7CF
:1005B000C16841F02001C160EDE72DE9F05F05461B
:1005C000006800244669D0F804908768D0F80CB021
:1005D000D0F810A0D0F81880F10748D0F90714D04F
:1005E00001218160B80703D5284600F03FFA0CE0EE
:1005F000780702D54FF4006407E0380702D54FF4BE
:10060000805402E0284600F030FAF80516D5296833
:100610004FF480708860B80503D5284600F028FAAA
:100620000CE0780502D544F4005407E0380502D503
:1006300044F4804402E0284600F019FAF80316D585
:1006400029684FF480308860B80303D5284600F04D
:1006500011FA0CE0780302D544F4004407E03803B3
:1006600002D544F4803402E0284600F002FA300754
:1006700007D55FEACB6004D52968102044F40074E4
:10068000C86070074FF0080707D55FEA0B7004D504
:100690002868C760284600F0B1F9B00706D5286879
:1006A000C068800702D0284600F0AAF9700607D576
:1006B0005FEACA6004D52968102044F480640861A8
:1006C000B00607D55FEA0A7004D528680761284696
:1006D00000F0C8F9F00606D528680069800702D046
:1006E000284600F0C0F9B00308D55FEAC96005D517
:1006F000296810204860284600F0B6F9F00307D5B5
:100700005FEA097004D528684760284600F0B3F90D
:10071000300446D55FEA497040D5F00504D55FEA5C
:10072000C87001D044F00104B00504D55FEA8870B8
:1007300001D544F00204700504D55FEA487001D584
:1007400044F00404300529D518F0700F26D008F0C5
:100750007000402815D006DC102809D020280AD0C7
:10076000302816D10AE050280ED0602811D10EE0B2
:1007700044F008040DE044F010040AE044F02004C2
:1007800007E044F0400404E044F0800401E044F455
:1007900080742868816921F07001816129680420D2
:1007A0004860002C05D0686A204368622846FFF73D
:1007B0008FFEBDE8F09F70B5040003D094F82000D0
:1007C00010B104E0012070BD204600F081F82068DF
:1007D000016821F00201016000F038FA05460526A3
:1007E00004E000F033FA401B0A2811D82068406862
:1007F0008007F6D42068016841F00101016000F033
:1008000025FA05460BE000F021FA401B0A2806D91C
:10081000606A40F40030606284F82060D2E72068AB
:100820004068C007EFD0207E0128206801683DD0D5
:1008300021F080010160607E01282068016838D0C5
:1008400021F040010160A07E01282068016833D0BA
:1008500021F020010160E07E0128206801682ED08F
:1008600041F010010160207F01282068016829D033
:1008700021F008010160607F01282068016824D010
:1008800021F004010160D4E902010843D4E9041213
:10089000114308436168491E08432168C86100206C
:1008A0006062012084F82000002070BD41F08001CA
:1008B000C0E741F04001C5E741F02001CAE721F05F
:1008C0001001CFE741F00801D4E741F00401D9E776
:1008D000F0B587B0044614216846FFF7BBFC414BD6
:1008E000414ADFF8FCE01968D4F800C03E48022510
:1008F0000326092710320024491CF44537D119601A
:10090000012907D1116841F000711160116801F0EF
:1009100000710591016841F480710160016801F482
:1009200080710591016841F001010160006802AA2F
:1009300000F0010005904FF40070CDE9000582E859
:10094000D0006946294800F097F84FF48050CDE96F
:10095000000502AA694682E8D000254800F08CF81C
:1009600000221146142000F009FA142033E0DFF8C9
:1009700084E0F44531D1D2F800C04CF0806CC2F86C
:1009800000C0D2F800C001290CF0806CCDF814C072
:10099000196007D1116841F000711160116801F010
:1009A00000710591016841F002010160006802AA2E
:1009B00000F0020005904FF44050CDE9000582E8B8
:1009C000D00069460C4800F057F80022114640203C
:1009D00000F0D4F9402000F0C3F907B0F0BD0000EA
:1009E0000064004010000020303802400020024027
:1009F0000000024000680040000402407047000010
:100A00002DE9F041144D044600682968884212D14E
:100A100005F16803A3F11C021E461746002120467B
:100A2000FFF757FD18B10DA000F0EEFE03E03146D0
:100A3000384600F02AFF2068296F884209D12046F5
:100A4000BDE8F041044BD833A3F11C020021FFF7AD
:100A500040BDBDE8F0810000640000206572726F47
:100A600072000000704770477047704770477047CA
:100A700070477047704770472DE9F84F00224FF0DC
:100A8000010803254FF00F0E0B6808FA02F423400B
:100A9000A3426ED14E68012E05D0022E03D0112E36
:100AA00001D0122E12D186684FEA420C05FA0CF7DB
:100AB000BE43CF6807FA0CF7374387604668A64302
:100AC0000C79C4F30014944034434460C668570062
:100AD00005FA07FC8C6826EA0C06BC403443C46067
:100AE0004C68022C01D0122C13D1D40800EB8404E2
:100AF000A346D4F8209054074FEAD46A0EFA0AF6B7
:100B000029EA06090E6906FA0AF646EA0906CBF84A
:100B1000206004680E7924EA0C0406F00306BE4047
:100B2000264306604C68E4006FD53B4C266846F4CB
:100B300080462660246822F0030604F48044009472
:100B4000364C3444A446D4F808489607360F0EFABB
:100B500006F7BC43324FB84201D100272EE0314F97
:100B6000B84201D1012729E02F4FB84202D1022714
:100B700024E04AE02D4FB84201D103271EE02C4F5C
:100B8000B84201D1042719E02A4FB84201D1052704
:100B900014E0294FB84201D106270FE0274FB84291
:100BA00001D107270AE0264FB84201D1082705E006
:100BB000244FB84201D1092700E00A27B740274354
:100BC000CCF80878204E34684F689C43FF0300D56A
:100BD0001C4334601C4E361D34684F689C43BF0371
:100BE00000D51C433460184E083634684F689C4367
:100BF000FF0200D51C433460134E0C3634684F6836
:100C00009C43BF0200D51C433460521C102AFFF4E1
:100C10003BAFBDE8F88F000044380240003001408F
:100C2000000002400004024000080240000C0240A4
:100C3000001002400014024000180240001C024054
:100C40000020024000240240003C0140014880682E
:100C5000704700000000002070B5040011D021682A
:100C60004CF6CC400860216845F255500860D4E944
:100C7000000141602168A0688860FFF7E7FF054632
:100C800009E0012070BD00BFFFF7E0FF401B3028E6
:100C900001D9032070BD2068C0680028F4D1216804
:100CA0004AF6AA200860002070BD00000248816852
:100CB0000278114481607047000000200B4810B595
:100CC000016841F400710160016841F480610160D4
:100CD000016841F480710160032000F06FF800208A
:100CE00000F006F800F024F8002010BD003C02409F
:100CF00070B50D4D04464FF47A712878B1FBF0F0D1
:100D00000A490968B1FBF0F000F010FB48B9102C5B
:100D100007D200222146501E00F030F800206C60FF
:100D200070BD012070BD0000000000200C000020FC
:100D30000A4808B5016841F480410160006800F488
:100D4000804000900548001F016841F0805101601B
:100D5000006800F08050009008BD00004438024058
:100D6000002809DB00F01F020121914040098000AA
:100D700000F1E020C0F8001170470000F0B40E4B05
:100D80001B680C46C3F30223C3F10705042D00D9E9
:100D90000425191D072901D2002300E0DB1E0126CE
:100DA00006FA05F1491E214099409E40761E1640E4
:100DB0003143F0BC00F030BD0CED00E0064900F01E
:100DC000070208684FF6FF03184040EA0220034A72
:100DD00010430860704700000CED00E00000FA05C9
:100DE0002DE9F8431748016841F08051016000681F
:100DF000154F00F08050012600903E64FFF726FF5B
:100E000005464FF47A78114C05E000BFFFF71EFF4E
:100E1000401B40450DD86068C003F7D57E64FFF7DE
:100E200015FF0546464607E0FFF710FF401BB0429E
:100E300002D90320BDE8F88360688003F4D5002060
:100E4000F8E700004038024000000E420070004009
:100E50002DE9F0470E46050065D0DFF81481D8F87B
:100E60000000F7B200F00F00B04207D288F800701F
:100E7000D8F8000000F00F00B04254D128683D4C73
:100E8000810712D5400703D5206840F4E050206068
:100E90002878000703D5206840F46040206020686F
:100EA000A96820F0F000084320602878C0072DD002
:100EB000304968680839012812D0022813D0032865
:100EC00011D00968890700292DDA216821F0030172
:100ED00001432160FFF7BAFE814641F2883A0EE0F5
:100EE00009688903EFE709688901ECE7FFF7AEFEBF
:100EF000A0EB0901514502D90320BDE8F087206825
:100F0000696800F00C00B0EB810FEFD1D8F8001049
:100F1000404601F00F01B14207D90770006800F0A8
:100F20000F00B04201D00120E7E72878400705D53F
:100F30002068E96820F4E050084320602878000722
:100F400006D52068296920F4604040EAC10020608D
:100F500000F018F82168084AC1F30311515CC84039
:100F60000649086006480068FFF7C2FE0020C4E793
:100F7000003C024008380240C41800080C00002061
:100F800004000020104810B5006810F00C010F4854
:100F900018D0042916D0082914D10B4C241F21681D
:100FA00001F03F02216821680023C1F38811A1FBF1
:100FB0000001FFF717F92168C1F30141491C4900FD
:100FC000B0FBF1F010BD0000083802400024F4002E
:100FD0002DE9F84F04006ED02078DFF83C93C0076D
:100FE000A9F104054AD009F104000168C1F38101A7
:100FF000012908D00068C0F3810002280AD1D9F87D
:101000000000400206D52868800337D560680028B4
:10101000E1D033E06068B0F5803F10D0B0F5A02F8C
:10102000286810D020F480302860286820F48020C0
:1010300028606068A8B1FFF709FE06460DE0286841
:1010400040F48030F4E740F480202860F7E700BFE8
:10105000FFF7FCFD801B642873D828688003F7D550
:101060000CE0FFF7F3FD064605E000BFFFF7EEFDDD
:10107000801B6428F0D828688003F7D42078DFF834
:101080009C8280074FF0000A3ED5A348001D0168EE
:1010900011F00C0F08D00068C0F3810002280BD1BA
:1010A000D9F80000400207D42868800716D5E06808
:1010B000012800D112E02BE1E068B8B10120C8F8A6
:1010C0000000FFF7C3FD064605E000BFFFF7BEFDC9
:1010D000801B0228C0D828688007F7D528682169B6
:1010E00020F0F80040EAC10028600DE0C8F800A038
:1010F000FFF7ACFD064604E0FFF7A8FD801B0228C1
:101100001FD828688007F7D42078000722D5824EA0
:1011100083486169703671B101210160FFF796FD66
:10112000074604E0FFF792FDC01B022809D830688B
:101130008007F7D50EE0C0F800A0FFF787FD07464F
:1011400005E082E0FFF782FDC01B02287DD83068F1
:101150008007F7D42078400768D5DFF8BCB10027B6
:101160000BF13C0BDBF80000C0000BD4DBF80010E7
:1011700041F08051CBF80010DBF80000012700F0AF
:1011800080500090674E3068C00510D4306840F43D
:1011900080703060FFF75AFD009005E0FFF756FDC4
:1011A0000099401A022850D83068C005F6D55A4E2A
:1011B000A0686C3601280FD00528306810D020F0C8
:1011C00001003060306820F004003060A068B8B1E1
:1011D000FFF73CFD00900FE0306840F00100F4E7BD
:1011E00040F004003060F7E7FFF730FD0099411A46
:1011F00041F28830814266D830688007F4D50EE02D
:10120000FFF724FD009007E0FFF720FD0099411A49
:1012100041F28830814256D830688007F4D42FB12B
:10122000DBF8001021F08051CBF80010A069C8B3A2
:101230003949091D0968C1F3810102294AD00228F0
:10124000504607D0C8F8600000E03CE0FFF7FEFC25
:1012500004463BE04746C8F86000FFF7F7FC064647
:1012600005E000BFFFF7F2FC801B02282BD828689E
:101270008001F7D4D4E907010843A16A2A4A490842
:1012800002EB0141626A41EA8211084394F82C1092
:1012900040EA0161C9F8001001203866FFF7D6FC6A
:1012A000044606E036E000BFFFF7D0FC001B022832
:1012B00009D828688001F7D52CE000BFFFF7C6FCED
:1012C000001B022802D90320BDE8F88F286880019E
:1012D000F4D41FE00128F7D0D9F80000E26900F447
:1012E0008001914214D1226A00F03F0191420FD156
:1012F00047F6C071626A0140914209D1A26A00F4C6
:101300004031914204D1E16A00F07060884201D01E
:101310000120D9E70020D7E7043802400000474207
:10132000800E4742007000400000FFFF10B5401ED5
:10133000B0F1807F01D3012010BD4FF0E024606147
:101340000F21601700F068FA0020A06107202061DB
:10135000002010BD7047704770B590F83C20012AFE
:1013600032D0012480F83C40022280F83D200368FE
:101370005A689D6822F070060A6832435A60134B1F
:1013800002689A4214D0B2F1804F11D0104B9A42A9
:101390000ED0104B9A420BD00F4B9A4208D00F4BF5
:1013A0009A4205D00E4B9A4202D00E4B9A4204D17B
:1013B000496825F080031943916080F83D40002181
:1013C00080F83C10084670BD022070BD000001404E
:1013D0000004004000080040000C004000040140F0
:1013E000004001400018004010B5040003D094F8FC
:1013F0003D0010B107E0012010BD002084F83C0042
:10140000204600F00DF8022084F83D00211D2068E0
:1014100000F094F9012084F83D00002010BD000088
:1014200008B500680B49884212D10B48016841F0A9
:10143000200101600068002200F0200000901146A9
:101440003720FFF79BFCBDE808403720FFF788BC3A
:1014500008BD00000014004040380240704770B5DD
:101460000446006801694FF00005C943890715D497
:10147000C168C943890711D4E91E016101202077A1
:10148000206880698007204602D0FFF7E7FF04E06C
:1014900000F098F8204600F096F82577206801695A
:1014A000C943490717D4C168C943490713D46FF02A
:1014B00004010161022020772068806910F4407FD8
:1014C000204602D0FFF7CAFF04E000F07BF8204678
:1014D00000F079F8257720680169C943090716D417
:1014E000C168C943090712D46FF0080101610420E3
:1014F00020772068C0698007204602D0FFF7AEFF42
:1015000004E000F05FF8204600F05DF825772068E1
:101510000169C943C90617D4C168C943C90613D4B0
:101520006FF010010161082020772068C06910F475
:10153000407F204602D0FFF791FF04E000F042F820
:10154000204600F040F8257720680169C943C907A3
:1015500008D1C168C943C90704D1891E0161204669
:1015600000F032F820680169C943090609D4C1684E
:10157000C943090605D46FF0800101612046FFF7D9
:10158000E9FE20680169C943490609D4C168C94315
:10159000490605D46FF040010161204600F015F8BE
:1015A00020680169C94389060BD4C168C94389060B
:1015B00007D46FF0200101612046BDE87040FFF7BD
:1015C000CABE70BD7047704770477047FEE70000A5
:1015D000114808B5016841F480710160016801F4A7
:1015E00080710091016841F080010160016801F0A3
:1015F00080010091016841F002010160016801F081
:1016000002010091016841F001010160006800F0F1
:101610000100009008BD0000303802401CB50024D5
:101620000F4800940D490194016040F27B11C0E91C
:1016300001144FF6FF718461C160FFF7D5FE08B158
:10164000FEF7ABFE0094694605480194FFF784FE5F
:10165000002801D0FEF7A1FE1CBD000000140040D0
:1016600024000020FEE7FEE770477047FFF71EBB2F
:1016700030B593B030216846FEF7ECFD14210CA87C
:10168000FEF7E8FD21480024016841F08051016027
:10169000006800F0805011901D48016841F44041FD
:1016A00001600068102100F4404011900A20009071
:1016B0000120CDE903010225CDE905050820CDE98A
:1016C0000740B420CDE9090504200B906846FFF7D8
:1016D0007FFC08B1FEF761FEFFF782FB08B1FEF761
:1016E0005CFE0F20CDE90C054FF4A050CDE90E4073
:1016F0004FF48050109005210CA8FFF7A9FB00289B
:1017000001D0FEF74AFE13B030BD00004038024061
:10171000007000400548016841F470010160034910
:101720004FF00060803908607047000088ED00E0ED
:101730000148FFF794BE000024000020F0B50268C5
:10174000254C264D264E274F274B4FF0804CA0426C
:1017500009D0604507D0A84205D0B04203D0B842B6
:1017600001D0984204D122F0700E4A6842EA0E027B
:10177000A0421BD0604519D0A84217D0B04215D066
:10178000B84213D0984211D0184DA8420ED0184D2F
:10179000A8420BD0174DA84208D0174DA84205D03B
:1017A000164DA84202D0164DA84203D122F440752E
:1017B000CA682A434D6922F080022A4302608A687F
:1017C000C2620A688262A04201D0984201D10969CE
:1017D000016301214161F0BD0000014000040040AF
:1017E00000080040000C004000040140004001409F
:1017F000004401400048014000180040001C004027
:1018000000200040FEE70000014A024900F023B832
:1018100079180008140000200907090E002804DBCD
:1018200000F1E02080F80014704700F00F0000F194
:10183000E02080F8141D704702E008C8121F08C19C
:10184000002AFAD170477047002001E001C1121F41
:10185000002AFBD170472DE9F04116460F46044699
:10186000002503E03946B047641C6D1C2078002831
:10187000F8D12846BDE8F08138B504468DF800005F
:1018800069460320ABBE204638BD7047FFF716FA05
:10189000FFF7EEFEFEF728FDFFF79AFE084807491E
:1018A00001600021416040F6FF718160FFF7D4F9CB
:1018B00008B1FEF772FDFFF7B1FEFEE70030004011
:1018C00018000020000000000000000001020304D6
:1018D00006070809F418000800000020180000009E
:1018E000381800080C190008180000203005000006
:1018F000481800080100000010000000000000006F
:0C1900000024F4000000000000000000C3
:04000005080001AD41
:00000001FF
